{
  "_format": "hh-sol-artifact-1",
  "contractName": "ToDo",
  "sourceName": "contracts/ToDo.sol",
  "abi": [
    {
      "inputs": [
        {
          "internalType": "string",
          "name": "_title",
          "type": "string"
        },
        {
          "internalType": "string",
          "name": "_description",
          "type": "string"
        },
        {
          "internalType": "string",
          "name": "_deadline",
          "type": "string"
        },
        {
          "internalType": "address",
          "name": "_author",
          "type": "address"
        },
        {
          "internalType": "bool",
          "name": "_isCompleted",
          "type": "bool"
        }
      ],
      "name": "addToDo",
      "outputs": [],
      "stateMutability": "nonpayable",
      "type": "function"
    },
    {
      "inputs": [],
      "name": "getToDo",
      "outputs": [
        {
          "components": [
            {
              "internalType": "string",
              "name": "title",
              "type": "string"
            },
            {
              "internalType": "string",
              "name": "description",
              "type": "string"
            },
            {
              "internalType": "string",
              "name": "deadline",
              "type": "string"
            },
            {
              "internalType": "address",
              "name": "author",
              "type": "address"
            },
            {
              "internalType": "bool",
              "name": "isCompleted",
              "type": "bool"
            }
          ],
          "internalType": "struct ToDo.ToDoStructure[]",
          "name": "",
          "type": "tuple[]"
        }
      ],
      "stateMutability": "view",
      "type": "function"
    },
    {
      "inputs": [
        {
          "internalType": "uint256",
          "name": "",
          "type": "uint256"
        }
      ],
      "name": "toDoList",
      "outputs": [
        {
          "internalType": "string",
          "name": "title",
          "type": "string"
        },
        {
          "internalType": "string",
          "name": "description",
          "type": "string"
        },
        {
          "internalType": "string",
          "name": "deadline",
          "type": "string"
        },
        {
          "internalType": "address",
          "name": "author",
          "type": "address"
        },
        {
          "internalType": "bool",
          "name": "isCompleted",
          "type": "bool"
        }
      ],
      "stateMutability": "view",
      "type": "function"
    },
    {
      "inputs": [
        {
          "internalType": "uint256",
          "name": "_index",
          "type": "uint256"
        },
        {
          "internalType": "string",
          "name": "_title",
          "type": "string"
        },
        {
          "internalType": "string",
          "name": "_description",
          "type": "string"
        },
        {
          "internalType": "string",
          "name": "_deadline",
          "type": "string"
        },
        {
          "internalType": "address",
          "name": "_author",
          "type": "address"
        },
        {
          "internalType": "bool",
          "name": "_isCompleted",
          "type": "bool"
        }
      ],
      "name": "updateToDo",
      "outputs": [],
      "stateMutability": "nonpayable",
      "type": "function"
    }
  ],
  "bytecode": "0x608060405234801561001057600080fd5b5061108d806100206000396000f3fe608060405234801561001057600080fd5b506004361061004c5760003560e01c8063115b2f8c146100515780632f527d451461006d578063aede636a14610089578063c4f48625146100a7575b600080fd5b61006b60048036038101906100669190610ae4565b6100db565b005b610087600480360381019061008291906109fc565b6102f0565b005b610091610421565b60405161009e9190610d70565b60405180910390f35b6100c160048036038101906100bc9190610abb565b6106a7565b6040516100d2959493929190610d92565b60405180910390f35b8460008781548110610116577f4e487b7100000000000000000000000000000000000000000000000000000000600052603260045260246000fd5b9060005260206000209060040201600001908051906020019061013a9291906108b2565b508360008781548110610176577f4e487b7100000000000000000000000000000000000000000000000000000000600052603260045260246000fd5b9060005260206000209060040201600101908051906020019061019a9291906108b2565b5082600087815481106101d6577f4e487b7100000000000000000000000000000000000000000000000000000000600052603260045260246000fd5b906000526020600020906004020160020190805190602001906101fa9291906108b2565b508160008781548110610236577f4e487b7100000000000000000000000000000000000000000000000000000000600052603260045260246000fd5b906000526020600020906004020160030160006101000a81548173ffffffffffffffffffffffffffffffffffffffff021916908373ffffffffffffffffffffffffffffffffffffffff16021790555080600087815481106102c0577f4e487b7100000000000000000000000000000000000000000000000000000000600052603260045260246000fd5b906000526020600020906004020160030160146101000a81548160ff021916908315150217905550505050505050565b60006040518060a001604052808781526020018681526020018581526020018473ffffffffffffffffffffffffffffffffffffffff168152602001831515815250908060018154018082558091505060019003906000526020600020906004020160009091909190915060008201518160000190805190602001906103769291906108b2565b5060208201518160010190805190602001906103939291906108b2565b5060408201518160020190805190602001906103b09291906108b2565b5060608201518160030160006101000a81548173ffffffffffffffffffffffffffffffffffffffff021916908373ffffffffffffffffffffffffffffffffffffffff16021790555060808201518160030160146101000a81548160ff02191690831515021790555050505050505050565b60606000805480602002602001604051908101604052809291908181526020016000905b8282101561069e57838290600052602060002090600402016040518060a001604052908160008201805461047890610f40565b80601f01602080910402602001604051908101604052809291908181526020018280546104a490610f40565b80156104f15780601f106104c6576101008083540402835291602001916104f1565b820191906000526020600020905b8154815290600101906020018083116104d457829003601f168201915b5050505050815260200160018201805461050a90610f40565b80601f016020809104026020016040519081016040528092919081815260200182805461053690610f40565b80156105835780601f1061055857610100808354040283529160200191610583565b820191906000526020600020905b81548152906001019060200180831161056657829003601f168201915b5050505050815260200160028201805461059c90610f40565b80601f01602080910402602001604051908101604052809291908181526020018280546105c890610f40565b80156106155780601f106105ea57610100808354040283529160200191610615565b820191906000526020600020905b8154815290600101906020018083116105f857829003601f168201915b505050505081526020016003820160009054906101000a900473ffffffffffffffffffffffffffffffffffffffff1673ffffffffffffffffffffffffffffffffffffffff1673ffffffffffffffffffffffffffffffffffffffff1681526020016003820160149054906101000a900460ff16151515158152505081526020019060010190610445565b50505050905090565b600081815481106106b757600080fd5b90600052602060002090600402016000915090508060000180546106da90610f40565b80601f016020809104026020016040519081016040528092919081815260200182805461070690610f40565b80156107535780601f1061072857610100808354040283529160200191610753565b820191906000526020600020905b81548152906001019060200180831161073657829003601f168201915b50505050509080600101805461076890610f40565b80601f016020809104026020016040519081016040528092919081815260200182805461079490610f40565b80156107e15780601f106107b6576101008083540402835291602001916107e1565b820191906000526020600020905b8154815290600101906020018083116107c457829003601f168201915b5050505050908060020180546107f690610f40565b80601f016020809104026020016040519081016040528092919081815260200182805461082290610f40565b801561086f5780601f106108445761010080835404028352916020019161086f565b820191906000526020600020905b81548152906001019060200180831161085257829003601f168201915b5050505050908060030160009054906101000a900473ffffffffffffffffffffffffffffffffffffffff16908060030160149054906101000a900460ff16905085565b8280546108be90610f40565b90600052602060002090601f0160209004810192826108e05760008555610927565b82601f106108f957805160ff1916838001178555610927565b82800160010185558215610927579182015b8281111561092657825182559160200191906001019061090b565b5b5090506109349190610938565b5090565b5b80821115610951576000816000905550600101610939565b5090565b600061096861096384610e1f565b610dfa565b90508281526020810184848401111561098057600080fd5b61098b848285610efe565b509392505050565b6000813590506109a281611012565b92915050565b6000813590506109b781611029565b92915050565b600082601f8301126109ce57600080fd5b81356109de848260208601610955565b91505092915050565b6000813590506109f681611040565b92915050565b600080600080600060a08688031215610a1457600080fd5b600086013567ffffffffffffffff811115610a2e57600080fd5b610a3a888289016109bd565b955050602086013567ffffffffffffffff811115610a5757600080fd5b610a63888289016109bd565b945050604086013567ffffffffffffffff811115610a8057600080fd5b610a8c888289016109bd565b9350506060610a9d88828901610993565b9250506080610aae888289016109a8565b9150509295509295909350565b600060208284031215610acd57600080fd5b6000610adb848285016109e7565b91505092915050565b60008060008060008060c08789031215610afd57600080fd5b6000610b0b89828a016109e7565b965050602087013567ffffffffffffffff811115610b2857600080fd5b610b3489828a016109bd565b955050604087013567ffffffffffffffff811115610b5157600080fd5b610b5d89828a016109bd565b945050606087013567ffffffffffffffff811115610b7a57600080fd5b610b8689828a016109bd565b9350506080610b9789828a01610993565b92505060a0610ba889828a016109a8565b9150509295509295509295565b6000610bc18383610cec565b905092915050565b610bd281610eb6565b82525050565b610be181610eb6565b82525050565b6000610bf282610e60565b610bfc8185610e83565b935083602082028501610c0e85610e50565b8060005b85811015610c4a5784840389528151610c2b8582610bb5565b9450610c3683610e76565b925060208a01995050600181019050610c12565b50829750879550505050505092915050565b610c6581610ec8565b82525050565b610c7481610ec8565b82525050565b6000610c8582610e6b565b610c8f8185610e94565b9350610c9f818560208601610f0d565b610ca881611001565b840191505092915050565b6000610cbe82610e6b565b610cc88185610ea5565b9350610cd8818560208601610f0d565b610ce181611001565b840191505092915050565b600060a0830160008301518482036000860152610d098282610c7a565b91505060208301518482036020860152610d238282610c7a565b91505060408301518482036040860152610d3d8282610c7a565b9150506060830151610d526060860182610bc9565b506080830151610d656080860182610c5c565b508091505092915050565b60006020820190508181036000830152610d8a8184610be7565b905092915050565b600060a0820190508181036000830152610dac8188610cb3565b90508181036020830152610dc08187610cb3565b90508181036040830152610dd48186610cb3565b9050610de36060830185610bd8565b610df06080830184610c6b565b9695505050505050565b6000610e04610e15565b9050610e108282610f72565b919050565b6000604051905090565b600067ffffffffffffffff821115610e3a57610e39610fd2565b5b610e4382611001565b9050602081019050919050565b6000819050602082019050919050565b600081519050919050565b600081519050919050565b6000602082019050919050565b600082825260208201905092915050565b600082825260208201905092915050565b600082825260208201905092915050565b6000610ec182610ed4565b9050919050565b60008115159050919050565b600073ffffffffffffffffffffffffffffffffffffffff82169050919050565b6000819050919050565b82818337600083830152505050565b60005b83811015610f2b578082015181840152602081019050610f10565b83811115610f3a576000848401525b50505050565b60006002820490506001821680610f5857607f821691505b60208210811415610f6c57610f6b610fa3565b5b50919050565b610f7b82611001565b810181811067ffffffffffffffff82111715610f9a57610f99610fd2565b5b80604052505050565b7f4e487b7100000000000000000000000000000000000000000000000000000000600052602260045260246000fd5b7f4e487b7100000000000000000000000000000000000000000000000000000000600052604160045260246000fd5b6000601f19601f8301169050919050565b61101b81610eb6565b811461102657600080fd5b50565b61103281610ec8565b811461103d57600080fd5b50565b61104981610ef4565b811461105457600080fd5b5056fea264697066735822122048321a1d67678e8f72a96df3bb58b4d3260971db9bb3b66e6bdcc046dc9c991e64736f6c63430008040033",
  "linkReferences": {},
  "deployedLinkReferences": {}
}